:100000000C9472000C9493000C9493000C94930045
:100010000C9493000C9493000C9493000C94930014
:100020000C9493000C9493000C9493000C94930004
:100030000C9493000C9493000C9493000C949300F4
:100040000C9493000C9493000C9493000C949300E4
:100050000C9493000C9493000C9493000C949300D4
:100060000C9493000C9493000C9493000C949300C4
:100070000C9493000C9493000C9493000C949300B4
:100080000C9493000C9493000C9493000C949300A4
:100090000C9493000C9493000C9493000C94930094
:1000A0000C9493000C9493000C9493000C94930084
:1000B0000C9493000C9493000C9493000C94930074
:1000C0000C9493000C9493000C9493000C94930064
:1000D0000C9493000C9493000C9493000C94930054
:1000E0000C94930011241FBECFEFD1E2DEBFCDBF31
:1000F00000E00CBF12E0A0E0B2E0E8EDF8E000E0C4
:100100000BBF02C007900D92A030B107D9F722E0D3
:10011000A0E0B2E001C01D92A130B207E1F70E9459
:1001200095000C946A040C9400000E9499000E94AF
:1001300055042F923F924F925F926F927F928F92CF
:100140009F92AF92BF92CF92DF92EF92FF920F9366
:100150001F93CF93DF93CDB7DEB7C551D1400FB614
:10016000F894DEBF0FBECDBF8FB7F8949091000218
:10017000903011F090E003C091E09093000288234A
:100180000AF47894903009F47FC3089A0A9A0C9A7A
:100190000E9A3F9A3D9A3B9A399A099A0B9A0D9A70
:1001A0000F9A3E9A3C9A3A9A389A109A129A149A4E
:1001B000169A479A459A439A419A11981398159816
:1001C000179846984498429840988E010A5E1F4FAF
:1001D0004AE050E0C80160E07A010E94630440E018
:1001E00050E04EAB5FAB4CAB5DAB80E091E00FB647
:1001F0002C968EAF9FAF2C970FBE21E030E00FB64C
:100200002A962EAF3FAF2A970FBE0FB628964EAF55
:100210005FAF28970FBE0FB626962EAF3FAF26973B
:100220000FBE0FB624962EAF3FAF24970FBE0FB66A
:1002300022968EAF9FAF22970FBE8EAF9FAF4CAF6F
:100240005DAF8AAF9BAF28AF39AF8AAB9BAB28AB12
:1002500039AB4EA75FA72CA73DA72AA73BA788A726
:1002600099A78EA39FA34CA35DA34A018AA39BA336
:1002700028A339A3C801C69660E0A7010E946304C1
:10028000CE018A5A9F4F40E450E0B8010E945A04C0
:10029000CE018A5E9E4F8F83988709831A83005C04
:1002A0001F4F0C8B1D8B84E090E06C0182E090E08E
:1002B0007C0186E090E05C0185E090E01C0187E035
:1002C00090E03C0108E010E024018A8A9B8A9201B8
:1002D00049815A81C901DA0101964C011896C2017F
:1002E000BC01FA01E60FF71FE0810196E13009F049
:1002F0007DC07F77F6016E177F078CF4F7016E17CC
:100300007F07DCF4F2016E177F0709F429C0E1E0F2
:10031000F0E06E177F0709F02AC0139A28C0F50194
:100320006E177F07A4F4F6016E177F07D9F0F1016D
:100330006E177F07E1F4449A1AC06E177F07A1F089
:10034000E3E0F0E06E177F0791F4179A10C06E1784
:100350007F0761F0F3016E177F0749F4409A07C0E9
:10036000119A05C0469A03C0159A01C0429AF90134
:10037000FF77B601E617F7078CF4B701E617F70722
:10038000DCF4B201E617F70709F429C061E070E078
:10039000E617F70709F02AC0129828C0B501E6173A
:1003A000F707A4F4B601E617F707D9F0B101E6178D
:1003B000F707E1F445981AC0E617F707A1F063E0E4
:1003C00070E0E617F70791F4169810C0E617F707E4
:1003D00061F0B301E617F70749F4419807C0109898
:1003E00005C0479803C0149801C04398109A129A08
:1003F000149A169A479A459A439A419A11981398D3
:1004000015981798469844984298409880179107F5
:1004100009F066CF8C899D89A817B907C4019C0192
:10042000AD0109F059CFC201EA89FB89E817F90744
:1004300091F088EE93E0E817F90709F01DC2CE01AC
:100440004696BE016A5A7F4F40E450E00E945A042B
:1004500088E19CEF10C2CE018A529F4FBE016A5EB6
:100460007F4F4C0120E430E0A9010E945A04CE01E4
:100470008A569F4F8D839E8360E040E450E00E9447
:10048000630480E0888A998AA40120E0FA01682F39
:1004900077276A8B7B8B3896EE87FF872395622FB1
:1004A00077276B877C878D87382F3A95832F932FFB
:1004B000990F990B89879A8760E0F201E017F1079D
:1004C00009F4C4C1DA01AE0FBF1F8C9131968030A0
:1004D00009F43FC0813091F7862F8A9570E038305B
:1004E00008F01AC18830A8F489849A84880C991C71
:1004F000880C991C880C991CA889B9898A0E9B1EA6
:10050000A82FBB27A80DB91D9C9171E0913009F06F
:1005100070E0683008F000C189849A84880C991CC6
:10052000880C991C880C991CA889B9898A0E9B1E75
:10053000A62FBB278B829C82A80DB91DAC9191E0A0
:10054000A13009F090E0790F673009F0D7C096E04C
:10055000E6C0862F8A9570E0383008F046C08830B3
:10056000A8F489849A84880C991C880C991C880C9E
:10057000991CA889B9898A0E9B1EA82FBB27A80D94
:10058000B91D9C9171E0913009F070E0683008F07D
:100590002CC089849A84880C991C880C991C880C1E
:1005A000991CA889B9898A0E9B1EA62FBB278B820E
:1005B0009C82A80DB91DAC9191E0A13009F090E0AA
:1005C000790F673011F496E013C04F01962F939581
:1005D000A92FBB27EB81FC81EA0FFB1FA08191E0D3
:1005E000A13009F090E0790FF4018830982FB0F431
:1005F0008A889B88880C991C880C991C880C991CEB
:10060000A889B9898A0E9B1EA92FBB27A80DB91DE1
:10061000AC9191E0A13009F090E0790F6730C0F41F
:100620008A889B88880C991C880C991C880C991CBA
:10063000A889B9898A0E9B1E962F9395A92FBB274F
:10064000A80DB91DAC9191E0A13009F090E0790FAF
:100650009D85973008F048C08830B0F48B849C8426
:10066000880C991C880C991C880C991CA889B9893C
:100670008A0E9B1EA82FBB27A80DB91D9C9181E057
:10068000913009F080E0780F683008F02DC08B843D
:100690009C84880C991C880C991C880C991C88894E
:1006A0009989880E991EA62FBB278B829C82A80D44
:1006B000B91D9C9181E0913009F080E0780F67309E
:1006C00031F4733009F098C071E0C301AEC0862FD9
:1006D00083959927AB81BC81A80FB91F9C9181E0BC
:1006E000913009F080E0780F862F9927733009F058
:1006F00098C0683008F0C4C071E097C0962F9395F9
:10070000892E9924AB81BC81A80DB91DAC9191E0D3
:10071000A13009F090E0790F8830982FB0F48A88E2
:100720009B88880C991C880C991C880C991CA8899A
:10073000B9898A0E9B1EA92FBB27A80DB91DAC91A4
:1007400091E0A13009F090E0790F6730C0F48A8819
:100750009B88880C991C880C991C880C991CA8896A
:10076000B9898A0E9B1E962F9395A92FBB27A80D9A
:10077000B91DAC9191E0A13009F090E0790F9D8511
:10078000973008F048C08830B0F48B849C84880C83
:10079000991C880C991C880C991CA889B9898A0E07
:1007A0009B1EA82FBB27A80DB91D9C9181E09130FD
:1007B00009F080E0780F683008F02DC08B849C84AD
:1007C000880C991C880C991C880C991C888999891B
:1007D000880E991EA62FBB278B829C82A80DB91D5F
:1007E0009C9181E0913009F080E0780F673031F41E
:1007F0007E7F723009F468CFC30116C0862F8395BF
:100800009927AB81BC81A80FB91F9C9181E09130E1
:1008100009F080E0780F862F99277E7F723009F4E7
:1008200068CF683008F02CC070E0AA89BB89AA0F95
:10083000BB1FAA0FBB1FAA0FBB1F8D809E80A80DD8
:10084000B91DA80FB91F7C93639538CE8F81988509
:10085000EE85FF85E817F907822FAF0109F017CE63
:10086000CE018A5A9F4FBE016A567F4F40E450E046
:100870000E945A04C201FC013196EA8BFB8B27CD02
:100880000E944C040E9455040E9448040E94550492
:100890000E9450040E9455040E9450040E94550476
:1008A0000E9454040E945504FFCF81E090E0F89428
:1008B0000C946A04FB01DC0102C001900D924150CE
:1008C0005040D8F70895DC0101C06D93415050406D
:0808D000E0F70895F894FFCF52
:00000001FF
