:100000000C9472000C9493000C9493000C94930045
:100010000C9493000C9493000C9493000C94930014
:100020000C9493000C9493000C9493000C94930004
:100030000C9493000C9493000C9493000C949300F4
:100040000C9493000C9493000C9493000C949300E4
:100050000C9493000C9493000C9493000C949300D4
:100060000C9493000C9493000C9493000C949300C4
:100070000C9493000C9493000C9493000C949300B4
:100080000C9493000C9493000C9493000C949300A4
:100090000C9493000C9493000C9493000C94930094
:1000A0000C9493000C9493000C9493000C94930084
:1000B0000C9493000C9493000C9493000C94930074
:1000C0000C9493000C9493000C9493000C94930064
:1000D0000C9493000C9493000C9493000C94930054
:1000E0000C94930011241FBECFEFD1E2DEBFCDBF31
:1000F00000E00CBF12E0A0E0B2E0EEE7FBE000E0C1
:100100000BBF02C007900D92A030B107D9F722E0D3
:10011000A0E0B2E001C01D92A130B207E1F70E9459
:1001200095000C94BD050C9400000E9499000E945B
:10013000B8052F923F924F925F926F927F928F926B
:100140009F92AF92BF92CF92DF92EF92FF920F9366
:100150001F93CF93DF93CDB7DEB7C25CD0400FB60D
:10016000F894DEBF0FBECDBF8FB7F8949091000218
:10017000903011F090E003C091E09093000288234A
:100180000AF47894903009F4E6C4089A0A9A0C9A12
:100190000E9A3F9A3D9A3B9A399A099A0B9A0D9A70
:1001A0000F9A3E9A3C9A3A9A389A109A129A149A4E
:1001B000169A479A459A439A419A11981398159816
:1001C0001798469844984298409821E030E00FB63E
:1001D000CD57DF4F2EAF3FAFC358D0400FBE0FB645
:1001E000CF57DF4F2EAF3FAFC158D0400FBE0FB635
:1001F000C158DF4F2EAF3FAFCF57D0400FBE0FB625
:10020000C358DF4F2EAF3FAFCD57D0400FBE80E079
:1002100091E00FB6C558DF4F8EAF9FAFCB57D040A0
:100220000FBE0FB6C758DF4F8EAF9FAFC957D04034
:100230000FBE0FB6C958DF4F8EAF9FAFC757D04024
:100240000FBE0FB6CB58DF4F8EAF9FAFC557D04014
:100250000FBE0FB6CD58DF4F2EAF3FAFC357D040C4
:100260000FBE0FB6CF58DF4F2EAF3FAFC157D040B4
:100270000FBE0FB6C159DF4F2EAF3FAFCF56D040A4
:100280000FBE0FB6C359DF4F2EAF3FAFCD56D04094
:100290000FBE0FB6C559DF4F8EAF9FAFCB56D040C4
:1002A0000FBE0FB6C759DF4F8EAF9FAFC956D040B4
:1002B0000FBE0FB6C959DF4F8EAF9FAFC756D040A4
:1002C0000FBE0FB6CB59DF4F8EAF9FAFC556D04094
:1002D0000FBE0FB6CD59DF4F2EAF3FAFC356D04044
:1002E0000FBE0FB6CF59DF4F2EAF3FAFC156D04034
:1002F0000FBE0FB6C15ADF4F2EAF3FAFCF55D04024
:100300000FBE0FB6C35ADF4F2EAF3FAFCD55D04013
:100310000FBE0FB6C55ADF4F8EAF9FAFCB55D04043
:100320000FBE0FB6C75ADF4F8EAF9FAFC955D04033
:100330000FBE0FB6C95ADF4F8EAF9FAFC755D04023
:100340000FBE0FB6CB5ADF4F8EAF9FAFC555D04013
:100350000FBE0FB6CD5ADF4F2EAF3FAFC355D040C3
:100360000FBE0FB6CF5ADF4F2EAF3FAFC155D040B3
:100370000FBE0FB6C15BDF4F2EAF3FAFCF54D040A3
:100380000FBE0FB6C35BDF4F2EAF3FAFCD54D04093
:100390000FBE0FB6C55BDF4F8EAF9FAFCB54D040C3
:1003A0000FBE0FB6C75BDF4F8EAF9FAFC954D040B3
:1003B0000FBE0FB6C95BDF4F8EAF9FAFC754D040A3
:1003C0000FBE0FB6CB5BDF4F8EAF9FAFC554D04093
:1003D0000FBECE018D579F4F9C01205C3F4F0FB643
:1003E000CD5BDF4F2EAF3FAFC354D0400FBEFC01FB
:1003F000FF960FB6EF96EEAFFFAFEF970FBEFC0183
:10040000FE960FB6ED96EEAFFFAFED970FBEFC0177
:10041000FD960FB6EB96EEAFFFAFEB970FBEFC016C
:10042000FC960FB6E996EEAFFFAFE9970FBEFC0161
:10043000FB960FB6E796EEAFFFAFE7970FBEFC0156
:10044000FA960FB6E596EEAFFFAFE5970FBEFC014B
:10045000F9960FB6E396EEAFFFAFE3970FBEFC0140
:10046000F8960FB6E196EEAFFFAFE1970FBEFC0135
:10047000F7960FB6AF96EEAFFFAFAF970FBEFC018A
:10048000F6960FB6AD96EEAFFFAFAD970FBEFC017F
:10049000F5960FB6AB96EEAFFFAFAB970FBEFC0174
:1004A000F4960FB6A996EEAFFFAFA9970FBEFC0169
:1004B000F3960FB6A796EEAFFFAFA7970FBEFC015E
:1004C000F2960FB6A596EEAFFFAFA5970FBEFC0153
:1004D000F1960FB6A396EEAFFFAFA3970FBEFC0148
:1004E000F0960FB6A196EEAFFFAFA1970FBEFC013D
:1004F000BF960FB66F96EEAFFFAF6F970FBEFC01C2
:10050000BE960FB66D96EEAFFFAF6D970FBEFC01B6
:10051000BD960FB66B96EEAFFFAF6B970FBEFC01AB
:10052000BC960FB66996EEAFFFAF69970FBEFC01A0
:10053000BB960FB66796EEAFFFAF67970FBEFC0195
:10054000BA960FB66596EEAFFFAF65970FBEFC018A
:10055000B9960FB66396EEAFFFAF63970FBEFC017F
:10056000B8960FB66196EEAFFFAF61970FBEFC0174
:10057000B7960FB62F96EEAFFFAF2F970FBEFC01C9
:10058000B6960FB62D96EEAFFFAF2D970FBEFC01BE
:10059000B5960FB62B96EEAFFFAF2B970FBEFC01B3
:1005A000B4960FB62996EEAFFFAF29970FBEFC01A8
:1005B000B3960FB62796EEAFFFAF27970FBEFC019D
:1005C000B2960FB62596EEAFFFAF25970FBEFC0192
:1005D000B1960FB62396EEAFFFAF23970FBEFC0187
:1005E000B0960FB62196EEAFFFAF21970FBEFC017C
:1005F0007F96EDAFFEAFFC017E96EBAFFCAFFC014A
:100600007D96E9AFFAAFFC017C96EFABF8AFFC0149
:100610007B96EDABFEABFC017A96EBABFCABFC0141
:100620007996E9ABFAABFC017896EFA7F8ABFC0141
:100630007796EDA7FEA7FC017696EBA7FCA7FC0139
:100640007596E9A7FAA7FC017496EFA3F8A7FC0139
:100650007396EDA3FEA3FC017296EBA3FCA3FC0131
:100660007196E9A3FAA3FC017096EF8FF8A3FC0141
:100670003F96ED8FFE8FFC013E96EB8FFC8FFC01C9
:100680003D96E98FFA8FFC013C96EF8BF88FFC01C9
:100690003B96ED8BFE8BFC013A96EB8BFC8BFC01C1
:1006A0003996E98BFA8BFC013896EF87F88BFC01C1
:1006B0003796ED87FE87FC013696EB87FC87FC01B9
:1006C0003596E987FA87FC013496EF83F887FC01B9
:1006D0003396ED83FE83FC013296EB83FC83019617
:1006E00089839A8380E090E044E050E062E070E02B
:1006F00026E030E008E010E02C01FC0138011A018E
:100700000FB6CF5BDF4FEEAFFFAFC154D0400FBE8F
:10071000CE018D579F4F7201F701DC0131966F01B9
:1007200018964D01D201FC01EA0FFB1FE081E13078
:1007300009F08CC0FD01FF77E417F5079CF4E6177C
:10074000F7070CF01FC05201EA15FB0509F431C090
:1007500061E070E0E617F70762E070E009F030C092
:10076000139A2EC0E217F307CCF4E417F50709F447
:1007700022C005E010E0E017F107830109F020C076
:10078000449A1EC0E617F707C1F023E030E0E217F5
:10079000F30726E030E0A1F4179A12C0E217F3073E
:1007A00071F047E050E0E417F507A10149F4409AE1
:1007B00007C0119A05C0469A03C0159A01C0429A13
:1007C000F701FF77E417F5079CF4E617F7070CF03D
:1007D0001FC05201EA15FB0509F431C061E070E069
:1007E000E617F70762E070E009F030C012982EC0FB
:1007F000E217F307CCF4E417F50709F422C005E08B
:1008000010E0E017F107830109F020C045981EC0F1
:10081000E617F707C1F023E030E0E217F30726E020
:1008200030E0A1F4169812C0E217F30771F047E028
:1008300050E0E417F507A10149F4419807C010986A
:1008400005C0479803C0149801C043981196109AA8
:10085000129A149A169A479A459A439A419A11986D
:100860001398159817984698449842984098A0175E
:10087000B10709F058CF0FB6CD5BDF4F8EAD9FADFE
:10088000C354D0400FBED401A817B907F6017F01A9
:10089000CD0109F043CFC2010FB6CF5BDF4FEEAD04
:1008A000FFADC154D0400FBEE817F90759F084EFEF
:1008B00091E0E817F90709F04CC181E090E0ECE025
:1008C000FEEF03C080E091E0F2010FB6CB5BDF4F9B
:1008D0009EAFC554D0400FBEA981BA818C93AB8125
:1008E000BC819C93AD81BE818C93AF81B8859C9374
:1008F000A985BA858C93AB85BC859C93AD85BE8557
:100900008C93AF85B8898C93A989BA899C93AB895C
:10091000BC898C93AD89BE899C93AF89B88D8C932B
:10092000A98DBA8D9C93AB8DBC8D8C93AD8DBE8DF6
:100930009C93AF8DB8A19C93A9A1BAA18C93ABA1B4
:10094000BCA19C93ADA1BEA18C93AFA1B8A59C9373
:10095000A9A5BAA58C93ABA5BCA59C93ADA5BEA536
:100960008C93AFA5B8A98C93A9A9BAA99C93ABA95C
:10097000BCA98C93ADA9BEA99C93AFA9B8AD8C932B
:10098000A9ADBAAD9C93ABADBCAD8C93ADADBEADD6
:100990009C930FB62196AEADBFAD21970FBE9C9331
:1009A0000FB62396AEADBFAD23970FBE8C930FB697
:1009B0002596AEADBFAD25970FBE9C930FB627967B
:1009C000AEADBFAD27970FBE8C930FB62996AEADD7
:1009D000BFAD29970FBE9C930FB62B96AEADBFADA2
:1009E0002B970FBE8C930FB62D96AEADBFAD2D9746
:1009F0000FBE9C930FB62F96AEADBFAD2F970FBE17
:100A00008C930FB66196AEADBFAD61970FBE8C9360
:100A10000FB66396AEADBFAD63970FBE9C930FB696
:100A20006596AEADBFAD65970FBE8C930FB667965A
:100A3000AEADBFAD67970FBE9C930FB66996AEADD6
:100A4000BFAD69970FBE8C930FB66B96AEADBFADC1
:100A50006B970FBE9C930FB66D96AEADBFAD6D9705
:100A60000FBE8C930FB66F96AEADBFAD6F970FBE36
:100A70009C930FB6A196AEADBFADA1970FBE9C9350
:100A80000FB6A396AEADBFADA3970FBE8C930FB6B6
:100A9000A596AEADBFADA5970FBE9C930FB6A7961A
:100AA000AEADBFADA7970FBE8C930FB6A996AEADF6
:100AB000BFADA9970FBE9C930FB6AB96AEADBFADC1
:100AC000AB970FBE8C930FB6AD96AEADBFADAD97E5
:100AD0000FBE9C930FB6AF96AEADBFADAF970FBE36
:100AE0008C930FB6E196AEADBFADE1970FBE8C9380
:100AF0000FB6E396AEADBFADE3970FBE9C930FB6B6
:100B0000E596AEADBFADE5970FBE8C930FB6E796F9
:100B1000AEADBFADE7970FBE9C930FB6E996AEADF5
:100B2000BFADE9970FBE8C930FB6EB96AEADBFADE0
:100B3000EB970FBE9C930FB6ED96AEADBFADED97A4
:100B40000FBE8C930FB6EF96AEADBFADEF970FBE55
:100B50009C933196D5CD0E94AF050E94B8050E94A6
:100B6000B3050E94B8050E94B7050E94B805FFCFE3
:0E0B700081E090E0F8940C94BD05F894FFCF5E
:00000001FF
