:100000000C9472000C9493000C9493000C94930045
:100010000C9493000C9493000C9493000C94930014
:100020000C9493000C9493000C9493000C94930004
:100030000C9493000C9493000C9493000C949300F4
:100040000C9493000C9493000C9493000C949300E4
:100050000C9493000C9493000C9493000C949300D4
:100060000C9493000C9493000C9493000C949300C4
:100070000C9493000C9493000C9493000C949300B4
:100080000C9493000C9493000C9493000C949300A4
:100090000C9493000C9493000C9493000C94930094
:1000A0000C9493000C9493000C9493000C94930084
:1000B0000C9493000C9493000C9493000C94930074
:1000C0000C9493000C9493000C9493000C94930064
:1000D0000C9493000C9493000C9493000C94930054
:1000E0000C94930011241FBECFEFD1E2DEBFCDBF31
:1000F00000E00CBF12E0A0E0B2E0E2E9F7E000E0CF
:100100000BBF02C007900D92A030B107D9F722E0D3
:10011000A0E0B2E001C01D92A130B207E1F70E9459
:1001200095000C94C7030C9400000E9499000E9453
:10013000BB032F923F924F925F926F927F928F926A
:100140009F92AF92BF92CF92DF92EF92FF920F9366
:100150001F93CF93DF93CDB7DEB7C458D0400FB60F
:10016000F894DEBF0FBECDBF8FB7F8949091000218
:10017000903011F090E003C091E09093000288234A
:100180000AF47894903009F4E9C2089A0A9A0C9A11
:100190000E9A3F9A3D9A3B9A399A099A0B9A0D9A70
:1001A0000F9A3E9A3C9A3A9A389A109A129A149A4E
:1001B000169A479A459A439A419A11981398159816
:1001C000179846984498429840988E010B5B1F4FB1
:1001D0004AE050E0C80160E00E94C00380E091E086
:1001E0000FB66F968EAF9FAF6F970FBE0FB66D961F
:1001F0008EAF9FAF6D970FBE21E030E00FB66B96CC
:100200002EAF3FAF6B970FBE40E050E00FB6699640
:100210004EAF5FAF69970FBE7A010FB667968EAF8C
:100220009FAF67970FBE0FB665962EAF3FAF65972E
:100230000FBE59010FB663968EAF9FAF63970FBE87
:100240006C0181E091E00FB661968EAF9FAF619730
:100250000FBEC8014A9645E050E08F8B988F60E052
:100260000E94C0030FB6E096EEAEFFAEE0970FBE61
:100270000FB6AE96EEAEFFAEAE970FBE81E00FB6F4
:10028000E4968EAFE4970FBE0FB6E296AEAEBFAE69
:10029000E2970FBE0FB6AC96CEAEDFAEAC970FBEF8
:1002A0000FB6AA96EEAEFFAEAA970FBE0FB6A896EF
:1002B000CEAEDFAEA8970FBE0FB6A696AEAEBFAE5F
:1002C000A6970FBEC8018E9646E050E00FB6219665
:1002D0008EAF9FAF21970FBE60E06A010E94C003FE
:1002E00081E00FB6EB968EAFEB970FBEC801C596B7
:1002F0004BE050E08DAF9EAF60E00E94C003C701AD
:10030000D8019D01205C3F4F0FB625962EAF3FAF21
:1003100025970FBEFD01F496EBAFFCAFFD01BD9636
:10032000E9AFFAAFFD01BC96EFABF8AFFD01BB96AC
:10033000EDABFEABFD01B796EBABFCABFD01B696AA
:10034000ED8BFE8BFD01B596EB8BFC8BFD01B4961E
:10035000E98BFA8BFD01B396EF87F88BFD01B2961E
:10036000E9ABFAABFD01B196EFA7F8ABFD01B09692
:10037000EDA7FEA7FD017F96ED87FE87FD0179962B
:10038000EBA7FCA7FD017896E9A7FAA7FD017796F0
:10039000EB87FC87FD017696E987FA87FD01759664
:1003A000EF83F887FD017496ED83FE83FD0173965C
:1003B000EB83FC83FD017296E983FA83FD0171965C
:1003C000EFA3F8A7FD017096EDA3FEA3FD013F96F4
:1003D000EBA3FCA3FD013E96E9A3FAA3FD013D9624
:1003E000EF8FF8A3FD013C96ED8FFE8FFD013B964C
:1003F000EB8FFC8F1A96A98FBA8F04E010E062E0B1
:1004000070E028E030E05901FC010FB62396EEAF12
:10041000FFAF23970FBE9E012B5B3F4FAC01DA016C
:10042000790111961D01F70138964C017F012F01CA
:10043000D901A80FB91F3B016C916130B30109F0DC
:100440008BC0DC01BF77A017B10794F4A617B707DC
:100450000CF01FC0B401A617B70709F430C061E063
:1004600070E0A617B707B60109F031C0139A2FC084
:10047000B601A617B707CCF4A017B10709F422C03C
:1004800065E070E0A617B707B60109F020C0449AEE
:100490001EC0A617B707B601B9F0E3E0F0E0AE174B
:1004A000BF077201A1F4179A12C0A617B70771F01F
:1004B000E7E0F0E0AE17BF0751F4409A08C0119A88
:1004C000B60105C0469A03C0159A01C0429ADA01E6
:1004D000BF77A017B10794F4B301A617B707F4F4D8
:1004E000B401A617B70709F42FC061E070E0A617A2
:1004F000B707B30109F030C012982EC0A617B7078E
:10050000C4F4A017B10709F421C065E070E0A61794
:10051000B707B30109F020C045981EC0A617B7075A
:10052000B9F0E3E0F0E0AE17BF077201A9F4169846
:1005300013C0A617B70771F067E070E0A617B707FA
:10054000B30151F4419808C0109805C0479803C002
:10055000149802C04398B3010196109A129A149A03
:10056000169A479A459A439A419A11981398159862
:1005700017984698449842984098D5018A179B0747
:1005800009F056CF0FB625968EAD9FAD25970FBEBD
:10059000970128173907D101AD01C40109F041CFF6
:1005A0000FB62396EEADFFAD23970FBEE817F90700
:1005B00009F44DC028EE33E0E217F30709F0CCC090
:1005C000CE018B5B9F4F60E04AE050E00E94C00389
:1005D00081E0A98DBA8D8C93AB8DBC8D8C9390E00E
:1005E000AD8DBE8D9C93AF8DB8A18C93A9A1BAA1FE
:1005F0008C93ABA1BCA19C93ADA1BEA19C938FA1F8
:1006000098A561E027E030E07901A7010E94C003CE
:10061000A9A5BAA580E08C938BA59CA561E0A70154
:100620000E94C003ADA5BEA580E08C93AFA5B8A97C
:100630008C9389A99AA961E045E050E00E94C0032B
:10064000C40128E13CEF790131E021E05EC0CE0138
:100650008B5B9F4F60E04AE050E00E94C00381E066
:10066000A98DBA8D8C93AB8DBC8D8C93AD8DBE8DC9
:1006700090E09C93AF8DB8A18C93A9A1BAA18C9363
:10068000ABA1BCA19C93ADA1BEA19C93AFA1B8A509
:100690008C93A981BA819C93AB81BC819C93AD81E1
:1006A000BE818C93AF81B8859C93A985BA859C93B4
:1006B00090E0AB85BC858C93A9A5BAA59C93ABA50E
:1006C000BCA58C938F89988D60E045E050E00E9436
:1006D000C00330E021E0C401AD85BE852C93ADA5FB
:1006E000BEA53C93AFA5B8A93C93A9A9BAA92C93E0
:1006F000AF85B8893C93A989BA893C93AB89BC89F9
:100700003C93AD89BE892C937C01EBA9FCA9828323
:10071000938380839183ADA9BEA92C93AFA9B8AD73
:100720003C93A9ADBAAD2C930FB621968EAD9FAD7B
:1007300021970FBE60E0A6010E94C003ABADBCAD27
:1007400081E08C938DAD9EAD60E04BE050E00E9467
:10075000C003C401B301F701319657CE0E94B20322
:100760000E94BB030E94B6030E94BB030E94BA030F
:100770000E94BB03FFCF81E090E0F8940C94C70384
:10078000DC0101C06D9341505040E0F70895F894AA
:02079000FFCF99
:00000001FF
