:100000000C9472000C9493000C9493000C94930045
:100010000C9493000C9493000C9493000C94930014
:100020000C9493000C9493000C9493000C94930004
:100030000C9493000C9493000C9493000C949300F4
:100040000C9493000C9493000C9493000C949300E4
:100050000C9493000C9493000C9493000C949300D4
:100060000C9493000C9493000C9493000C949300C4
:100070000C9493000C9493000C9493000C949300B4
:100080000C9493000C9493000C9493000C949300A4
:100090000C9493000C9493000C9493000C94930094
:1000A0000C9493000C9493000C9493000C94930084
:1000B0000C9493000C9493000C9493000C94930074
:1000C0000C9493000C9493000C9493000C94930064
:1000D0000C9493000C9493000C9493000C94930054
:1000E0000C94930011241FBECFEFD1E2DEBFCDBF31
:1000F00000E00CBF12E0A0E0B2E0EAE2FAE000E0CB
:100100000BBF02C007900D92A030B107D9F722E0D3
:10011000A0E0B2E001C01D92A130B207E1F70E9459
:1001200095000C9413050C9400000E9499000E9405
:1001300007052F923F924F925F926F927F928F921C
:100140009F92AF92BF92CF92DF92EF92FF920F9366
:100150001F93CF93DF93CDB7DEB7CC59D0400FB606
:10016000F894DEBF0FBECDBF8FB7F8949091000218
:10017000903011F090E003C091E09093000288234A
:100180000AF47894903009F435C4089A0A9A0C9AC3
:100190000E9A3F9A3D9A3B9A399A099A0B9A0D9A70
:1001A0000F9A3E9A3C9A3A9A389A109A129A149A4E
:1001B000169A479A459A439A419A11981398159816
:1001C0001798469844984298409821E030E00FB63E
:1001D000C35ADF4F2EAF3FAFCD55D0400FBE0FB645
:1001E000C55ADF4F2EAF3FAFCB55D0400FBE0FB635
:1001F000C75ADF4F2EAF3FAFC955D0400FBE0FB625
:10020000C95ADF4F2EAF3FAFC755D0400FBE80E079
:1002100091E00FB6CB5ADF4F8EAF9FAFC555D040A0
:100220000FBE0FB6CD5ADF4F8EAF9FAFC355D04034
:100230000FBE0FB6CF5ADF4F8EAF9FAFC155D04024
:100240000FBE0FB6C15BDF4F8EAF9FAFCF54D04014
:100250000FBE0FB6C35BDF4F2EAF3FAFCD54D040C4
:100260000FBE0FB6C55BDF4F2EAF3FAFCB54D040B4
:100270000FBE0FB6C75BDF4F2EAF3FAFC954D040A4
:100280000FBE0FB6C95BDF4F2EAF3FAFC754D04094
:100290000FBE0FB6CB5BDF4F8EAF9FAFC554D040C4
:1002A0000FBE0FB6CD5BDF4F8EAF9FAFC354D040B4
:1002B0000FBE0FB6CF5BDF4F8EAF9FAFC154D040A4
:1002C0000FBE0FB6EF968EAF9FAFEF970FBE0FB674
:1002D000ED962EAF3FAFED970FBE0FB6EB962EAF5C
:1002E0003FAFEB970FBE0FB6E9962EAF3FAFE99742
:1002F0000FBE0FB6E7962EAF3FAFE7970FBE0FB614
:10030000E5968EAF9FAFE5970FBE0FB6E3968EAF23
:100310009FAFE3970FBE0FB6E1968EAF9FAFE19709
:100320000FBE0FB6AF968EAF9FAFAF970FBE0FB693
:10033000AD962EAF3FAFAD970FBE0FB6AB962EAFBB
:100340003FAFAB970FBE0FB6A9962EAF3FAFA997A1
:100350000FBE79010FB6A7962EAF3FAFA7970FBE7E
:100360000FB6A5968EAF9FAFA5970FBE0FB6A396FB
:100370008EAF9FAFA3970FBE0FB6A1968EAF9FAF64
:10038000A1970FBE0FB66F968EAF9FAF6F970FBE40
:10039000CE01835A9F4F9C01205C3F4F0FB66B9656
:1003A0002EAF3FAF6B970FBEFC01F596EDA3FEA3FA
:1003B000FC01F496EBA3FCA3FC01F396E9A3FAA3DA
:1003C000FC01BE96EF8FF8A3FC01BD960FB66796B1
:1003D000EEAFFFAF67970FBEFC01BC960FB66596F8
:1003E000EEAFFFAF65970FBEFC01BB960FB66396ED
:1003F000EEAFFFAF63970FBEFC01BA96ED8FFE8F95
:10040000FC01B996EB8FFC8FFC01B896E98FFA8F4F
:10041000FC01B796EF8BF88FFC01B6960FB661968C
:10042000EEAFFFAF61970FBEFC01B596ED8BFE8B73
:10043000FC01B496EB8BFC8BFC01B396E98BFA8B39
:10044000FC01B2960FB62F96EEAFFFAF2F970FBEFF
:10045000FC01B1960FB62D96EEAFFFAF2D970FBEF4
:10046000FC01B0960FB62B96EEAFFFAF2B970FBEE9
:10047000FC017F960FB62996EEAFFFAF29970FBE0E
:10048000FC017E96ED87FE87FC017A96EB87FC8760
:10049000FC0179960FB62796EEAFFFAF27970FBEF8
:1004A000FC0178960FB62596EEAFFFAF25970FBEED
:1004B000FC0177960FB62396EEAFFFAF23970FBEE2
:1004C000FC0176960FB62196EEAFFFAF21970FBED7
:1004D000FC017596EDAFFEAFFC017496EBAFFCAF7F
:1004E000FC017396E9AFFAAFFC017296EFABF8AF7F
:1004F000FC017196EDABFEABFC017096EBABFCAB77
:10050000FC013F96E9ABFAABFC013E96EFA7F8ABD6
:10051000FC013D96EDA7FEA7FC013C96EBA7FCA7CE
:10052000FC013B96E9A7FAA7FC013A96EFA3F8A7CE
:10053000FC013996E987FA87FC013896EF83F88742
:10054000FC013796ED83FE83FC013696EB83FC833A
:10055000FC013296E983FA8301968F87988B80E0BD
:1005600090E004E010E0A2E0B0E026E030E06901B5
:1005700028E030E059014C01FC010FB66996EEAF5E
:10058000FFAF69970FBE9E01235A3F4FA401CA01D6
:10059000F90101960FB66D968EAF9FAF6D970FBEA6
:1005A00038961F01F4012D01D901AE0FBF1F8C91A8
:1005B000D201813009F07EC0CF019F77801791076B
:1005C00084F48A179B07DCF4D4018A179B0709F48B
:1005D0002AC0B70186179707D20109F02CC0139AD9
:1005E0002AC0360186159705A4F480179107F1F00B
:1005F00065E070E086179707F1F4449A1CC08A17EB
:100600009B07B1F063E070E086179707A1F4179A93
:1006100012C08615970571F067E070E0861797079E
:1006200051F4409A08C0119AD20105C0469A03C0FD
:10063000159A01C0429ACA019F778017910784F4E6
:100640008A179B07DCF4D4018A179B0709F42AC098
:10065000B70186179707D20109F02CC012982AC05B
:10066000360186159705A4F480179107F1F065E02F
:1006700070E086179707F1F445981CC08A179B070E
:10068000B1F063E070E086179707A1F4169812C0E6
:100690008615970571F067E070E08617970751F4AB
:1006A000419808C01098D20105C0479803C014981B
:1006B00001C043983196109A129A149A169A479A42
:1006C000459A439A419A1198139815981798469805
:1006D000449842984098C501E817F90709F063CF9C
:1006E0000FB66B968EAD9FAD6B970FBEF101E817FD
:1006F000F9070FB66D968EAD9FAD6D970FBEAC012D
:100700009F0109F046CFC4010FB66996EEADFFAD6B
:1007100069970FBEE817F90709F4A3C088EE93E0C4
:10072000E817F90709F064C1CE01835A9F4F60E0D2
:100730004AE050E00E940C05AFA1B8A591E09C935F
:10074000A9A5BAA580E08C93ABA5BCA58C93ADA55B
:10075000BEA59C93AFA5B8A98C93A9A9BAA98C935F
:10076000ABA9BCA98C93ADA9BEA99C93AFA9B8AD08
:100770008C93A9ADBAAD9C93ABADBCAD9C93ADAD24
:10078000BEAD8C930FB62196AEADBFAD21970FBE17
:100790009C930FB62396AEADBFAD23970FBE8C933F
:1007A0000FB62596AEADBFAD25970FBE8C930FB695
:1007B0002796AEADBFAD27970FBE9C93EB85FC850A
:1007C00034016282738260827182AD85BE8591E060
:1007D0009C930FB62996AEADBFAD29970FBE8C93F3
:1007E0000FB62B96AEADBFAD2B970FBE8C930FB649
:1007F0002D96AEADBFAD2D970FBE8C930FB62F9635
:10080000AEADBFAD2F970FBE9C93A989BA898C93CB
:10081000AB89BC898C93AD89BE899C930FB66196D8
:100820008EAD9FAD61970FBE60E045E050E00E9445
:100830000C050FB66396AEADBFAD63970FBE81E0FA
:100840008C930FB66596AEADBFAD65970FBE8C931A
:100850000FB667968EAD9FAD67970FBE60E043E120
:10086000BFC080E00FB66F968EAF6F970FBEAF859B
:10087000B88981E08C93E981FA81340162827382C4
:1008800060827182AB81BC818C93AD81BE8190E02E
:100890009C93AF81B8858C93A985BA859C93AFA1B1
:1008A000B8A58C93A9A5BAA59C93ABA5BCA59C9310
:1008B000ADA5BEA58C93AFA5B8A99C93A9A9BAA9CB
:1008C0008C93ABA9BCA98C93ADA9BEA99C93AFA9ED
:1008D000B8AD9C93A9ADBAAD8C93ABADBCAD8C93C8
:1008E000ADADBEAD9C930FB62196AEADBFAD219719
:1008F0000FBE9C930FB62396AEADBFAD23970FBE30
:100900008C930FB62596AEADBFAD25970FBE8C93D9
:100910000FB627968EAD9FAD27970FBE60E0A6015C
:100920000E940C050FB62996AEADBFAD29970FBE3C
:1009300081E08C930FB62B96AEADBFAD2B970FBE5B
:1009400090E09C930FB62D96AEADBFAD2D970FBE28
:100950008C930FB62F96EEADFFAD2F970FBE628230
:100960007382608271820FB66196AEADBFAD619742
:100970000FBE8C9391E0AF89B88D80E08C93A98DE8
:10098000BA8D8C93AB8DBC8D8C93AD8DBE8D9C93AD
:100990000FB66396AEADBFAD63970FBE8C9380E08C
:1009A0000FB66596AEADBFAD65970FBE8C930FB613
:1009B0006796AEADBFAD67970FBE9C938F8D98A124
:1009C00060E045E050E00E940C05A9A1BAA181E0D9
:1009D0008C93ABA1BCA18C938DA19EA160E04BE058
:1009E00050E00E940C05D20161E070E07B01F30150
:1009F0003196C3CD0E94FE040E9407050E940205A5
:100A00000E9407050E9406050E940705FFCF81E0AE
:100A100090E0F8940C941305DC0101C06D934150F3
:0A0A20005040E0F70895F894FFCF6E
:00000001FF
