:100000000C9472000C9493000C9493000C94930045
:100010000C9493000C9493000C9493000C94930014
:100020000C9493000C9493000C9493000C94930004
:100030000C9493000C9493000C9493000C949300F4
:100040000C9493000C9493000C9493000C949300E4
:100050000C9493000C9493000C9493000C949300D4
:100060000C9493000C9493000C9493000C949300C4
:100070000C9493000C9493000C9493000C949300B4
:100080000C9493000C9493000C9493000C949300A4
:100090000C9493000C9493000C9493000C94930094
:1000A0000C9493000C9493000C9493000C94930084
:1000B0000C9493000C9493000C9493000C94930074
:1000C0000C9493000C9493000C9493000C94930064
:1000D0000C9493000C9493000C9493000C94930054
:1000E0000C94930011241FBECFEFD1E2DEBFCDBF31
:1000F00000E00CBF12E0A0E0B2E0E6ECF1E000E0CE
:100100000BBF02C007900D92A030B107D9F722E0D3
:10011000A0E0B2E001C01D92A130B207E1F70E9459
:1001200095000C94E1000C9400000E9499000E943C
:10013000DC008FB7F89490910002903011F090E0BD
:1001400003C091E09093000288230AF478949030E1
:1001500009F425C0089A0A9A0C9A0E9A3F9A3D9A79
:100160003B9A399A099A0B9A0D9A0F9A3E9A3C9AA1
:100170003A9A389A109A129A149A169A479A459A65
:10018000439A419A1198139815981798469844984D
:100190004298409816984798179A469AFBCF0E9423
:1001A000D3000E94DC000E94D7000E94DC000E9465
:1001B000DB000E94DC00FFCF81E090E0F8940C941B
:0601C000E100F894FFCFFE
:00000001FF
